S010000046697273744370702E73726563E9
S11300000C9443000C946D000C9492000C946B00BF
S11300100C946B000C946B000C946B000C946B00B0
S11300200C946B000C946B000C946B000C946B00A0
S11300300C946B000C946B000C946B000C946B0090
S11300400C946B000C946B000C946B000C946B0080
S11300500C946B000C946B000C946B000C946B0070
S11300600C946B000C946B00E100E500E900ED00DA
S1130070F100F500F900FD000101050109010D0180
S113008011011501960111241FBECFEFD8E0DEBF88
S1130090CDBF11E0A0E0B1E0ECECF3E002C00590CC
S11300A00D92A430B107D9F721E0A4E0B1E001C07A
S11300B01D92AC30B207E1F710E0C3E4D0E004C015
S11300C02197FE010E94BC01C234D107C9F70E94E6
S11300D03D010C94E4010C9400001F920F920FB6A2
S11300E00F9211248F939F93AF93BF93809100013C
S11300F090910101A0910201B09103010196A11D0B
S1130100B11D8093000190930101A0930201B0936B
S11301100301BF91AF919F918F910F900FBE0F90EC
S11301201F9018951F920F920FB60F9211248F9360
S11301309F93AF93BF938091000190910101A0918F
S11301400201B09103010197A109B1098093000153
S113015090930101A0930201B0930301BF91AF9169
S11301609F918F910F900FBE0F901F901895FC01D7
S1130170718360830895E9E6F0E080818360808381
S11301808DB381608DBB78940895E9E6F0E08081B9
S11301908C6080838DB382608DBB78940895609168
S11301A00001709101018091020190910301089571
S11301B090E08E309105E0F5FC01EC5CFF4F0C946F
S11301C0BC018AB181608AB908958AB182608AB912
S11301D008958AB184608AB908958AB188608AB919
S11301E008958AB180618AB908958AB180628AB912
S11301F008958AB180648AB908958AB180688AB9F9
S1130200089584B1816084B9089584B1826084B909
S1130210089584B1846084B9089584B1886084B9F0
S1130220089584B1806184B9089584B1806284B9E9
S11302300895262F30E0FC0131832083862F0E940D
S1130240D80008950197C1F46F3F7F4FA9F46DE082
S11302508AE091E00E94190167E088E091E00E9441
S1130260190166E086E091E00E94190160EB74E0F8
S113027084E091E00E94B700089584E091E00E9438
S1130280BB0084E091E00E94C5008AB180648AB911
S11302908AB180688AB984E091E00E94CF0023E0AB
S11302A030E040E050E00E949D01672B682B692BF1
S11302B051F48BB180688BB98BB18F7B8BB985B1CD
S11302C08F7D85B9E8CF84E091E00E94CF0023E0E0
S11302D030E040E050E00E949D01613071058105ED
S11302E0910551F48BB180648BB98BB18F778BB945
S11302F085B18F7D85B9CFCF84E091E00E94CF0096
S113030023E030E040E050E00E949D01623071053E
S11303108105910509F0BFCF8BB18F7B8BB98BB170
S11303208F778BB985B1806285B9B5CF6FEF7FEFD9
S113033081E090E00E9422010895052E97FB1EF4AF
S113034000940E94B40157FD07D00E94C20107FC2B
S113035003D04EF40C94B4015095409530952195FA
S11303603F4F4F4F5F4F08959095809570956195DD
S11303707F4F8F4F9F4F0895EE0FFF1F0590F4910D
S1130380E02D0994A1E21A2EAA1BBB1BFD010DC08E
S1130390AA1FBB1FEE1FFF1FA217B307E407F50731
S11303A020F0A21BB30BE40BF50B661F771F881F0D
S11303B0991F1A9469F760957095809590959B01A3
S10F03C0AC01BD01CF010895F894FFCFFB
S10703CCFFFFFFFF2D
S9030000FC
