:100000000C9442000C9456000C94B6000C945400CE
:100010000C9454000C9454000C9454000C94540010
:100020000C9454000C9454000C9454000C94540000
:100030000C9454000C9454000C9454000C945400F0
:100040000C9454000C9454000C9454000C945400E0
:100050000C9454000C9454000C9454000C945400D0
:100060000C9454000C94540049014D015101550168
:1000700059015D016101650169016D017101750140
:1000800079017D0111241FBECFEFD8E0DEBFCDBFC7
:1000900021E0A0E0B1E001C01D92A430B207E1F779
:1000A0000E948A010C94B8010C9400001F920F92D8
:1000B0000FB60F9211242F933F934F935F936F933B
:1000C0007F938F939F93AF93BF9380910001909103
:1000D0000101A0910201B09103010196A11DB11D82
:1000E0008093000190930101A0930201B09303015A
:1000F00020E030E040910001509101016091020147
:1001000070910301C901032E000CAA0BBB0B8417CD
:100110009507A607B707DCF48BB180688BB94FE36E
:100120008DE093E0415080409040E1F700C0000036
:100130008BB18F778BB94FE38DE093E041508040D6
:100140009040E1F700C000002F5F3F4FD3CFBF9139
:10015000AF919F918F917F916F915F914F913F915F
:100160002F910F900FBE0F901F9018951F920F9216
:100170000FB60F9211242F933F934F935F936F937A
:100180007F938F939F93AF93BF9380910001909142
:100190000101A0910201B09103010197A109B109E8
:1001A0008093000190930101A0930201B093030199
:1001B00020E030E040910001509101016091020186
:1001C00070910301C901032E000CAA0BBB0B84170D
:1001D0009507A607B707DCF48BB180688BB94FE3AE
:1001E0008DE093E0415080409040E1F700C0000076
:1001F0008BB18F778BB94FE38DE093E04150804016
:100200009040E1F700C000002F5F3F4FD3CFBF9178
:10021000AF919F918F917F916F915F914F913F919E
:100220002F910F900FBE0F901F9018951092000104
:10023000109201011092020110920301FC017183DE
:1002400060830895E9E6F0E08081836080838DB368
:1002500081608DBB8FB780688FBF8AB180688AB993
:100260000895E9E6F0E080818C6080838DB3826040
:100270008DBB8FB780688FBF8AB180648AB90895BB
:1002800090E08E309105E0F5FC01EC5CFF4F0C94A2
:10029000B2018AB181608AB908958AB182608AB94F
:1002A00008958AB184608AB908958AB188608AB94C
:1002B00008958AB180618AB908958AB180628AB945
:1002C00008958AB180648AB908958AB180688AB92C
:1002D000089584B1816084B9089584B1826084B93D
:1002E000089584B1846084B9089584B1886084B924
:1002F000089584B1806184B9089584B1806284B91D
:100300000895262F30E0FC0131832083862F0E9440
:1003100040010895CF93DF93CDB7DEB728970FB68E
:10032000F894DEBF0FBECDBF6DE0CE0101960E94F6
:10033000810167E0CE0103960E94810166E0CE0153
:1003400005960E94810160EB74E0CE0107960E9441
:100350001601CE0107960E942201CE0107960E9447
:100360003101FFCFEE0FFF1F0590F491E02D0994AE
:04037000F894FFCF2F
:00000001FF
